:020000040800F2
:10000000B01400209D010008751A00083719000877
:10001000711A0008CF020008011C0008000000004F
:1000200000000000000000000000000005010008C2
:10003000D30200080000000049010008D11A00089E
:10004000B7010008B7010008B7010008B7010008B0
:10005000B7010008B7010008B7010008B7010008A0
:10006000B7010008B7010008B7010008B701000890
:10007000B7010008B7010008B7010008B701000880
:10008000B7010008B7010008B7010008B701000870
:10009000F11B0008B7010008B7010008B70100080C
:1000A000B70100086D1B0008B7010008B701000880
:1000B000B7010008B7010008B7010008B701000840
:1000C000B7010008B7010008B7010008B701000830
:1000D000B7010008B7010008B7010008B701000820
:1000E000B7010008B7010008B7010008DFF810D019
:1000F00000F0CCF800480047E5200008AFF300808E
:10010000B0140020224B19680868B0E8F00F80F3A3
:100110000988BFF36F8F4FF0000080F311884EF015
:100120000D0E70470000000006480068006880F36C
:10013000088862B661B6BFF34F8FBFF36F8F00DFE1
:1001400000BF00BF08ED00E0EFF30980BFF36F8F41
:100150000F4B1A6820E9F00F106008B54FF05000FF
:1001600080F31188BFF34F8FBFF36F8F02F0F2FC63
:100170004FF0000080F31188BDE808401968086856
:10018000B0E8F00F80F30988BFF36F8F704700BFAE
:1001900034000020EFF305807047000006488047D8
:1001A00006480047FEE7FEE7FEE7FEE7FEE7FEE75C
:1001B000FEE7FEE7FEE7FEE76B1B0008ED00000828
:1001C000202A04DB203A21FA02F00021704721FAAC
:1001D00002F3D040C2F12002914008431946704713
:1001E00040EA01039B0703D009E008C9121F08C0B9
:1001F000042AFAD203E011F8013B00F8013B521E39
:10020000F9D27047D2B201E000F8012B491EFBD2AF
:1002100070470022F6E710B513460A460446194611
:10022000FFF7F0FF204610BD2DE9F05F05460020E6
:1002300092469B4688460646814640241BE0284657
:10024000414647462246FFF7BBFF53465A46C01A6F
:10025000914110D311461846224600F029F82D1A74
:1002600067EB01084F4622460120002100F020F8EC
:1002700017EB00094E41201EA4F10104DFDC4846C3
:1002800031462A464346BDE8F09F0000064C074D24
:1002900006E0E06840F0010394E807009847103456
:1002A000AC42F6D3FFF726FFD0300008F03000084C
:1002B000202A04DB203A00FA02F100207047914026
:1002C000C2F1200320FA03F319439040704700BFA6
:1002D000FEE7704772B600BFFEE710B5024692F81F
:1002E0002030012B01D0022B06D110684069084351
:1002F00014686061002010BD506A40F48020506294
:100300000120F8E7F0B504460D461E4694F820702B
:1003100020688368A86800B900E000BF012F01D001
:10032000022F7CD103F0806030B903F0006018B96F
:1003300003F08050002873D0C3F30161022905D96E
:10034000606A40F4000060620120F0BD0120884036
:100350003060A86860B9B5F800C0E86840EA4C5C55
:10036000206800F5C07000EB0110C0F800C00FE07D
:10037000D5E901C040EACC00D5F80CC040EA0C0039
:10038000D4F800C00CF5C07C0CEB011CCCF80000CC
:10039000D5F810C0206800F5C07000EB0110C0F85F
:1003A00004C0287D01280ED1206800F5C07000EB44
:1003B0000110406840F4807C206800F5C07000EBBC
:1003C0000110C0F804C0D079000692F806C040EAD7
:1003D0000C4092F805C040EA0C2C10794CEA000C55
:1003E000206800F5C07000EB0110C0F80CC0D07898
:1003F000000692F802C040EA0C4092F801C040EAC0
:100400000C2092F800C040EA0C00D4F800C00CF5B3
:10041000C07C0CEB011CCCF80800206801E016E061
:100420000FE000F5C07000EB0110006840F0010C17
:10043000206800F5C07000EB0110C0F800C000207B
:1004400083E7606A40F40010606201207DE7606A23
:1004500040F480206062012077E7F0B504460A4648
:10046000216894F82050012D01D0022D74D1D1F8CB
:10047000000240F00100C1F80002107D00F01F06EC
:10048000012000FA06F3D1F81C029843C1F81C02BF
:10049000D069C8B9D1F80C029843C1F80C02908811
:1004A00080B2968940EA064601F51070576940F817
:1004B0003760108880B2168940EA064601F5107050
:1004C000576900EBC7004660D069012819D1D1F8FF
:1004D0000C021843C1F80C02908880B2168840EADA
:1004E000064601F51070576940F83760908980B270
:1004F000168940EA064601F51070576900EBC700FF
:100500004660906928B9D1F804029843C1F8040202
:1005100004E0D1F804021843C1F80402106928B9B4
:10052000D1F814029843C1F8140204E0D1F814027F
:100530001843C1F81402106A012804D1D1F81C0232
:100540001843C1F81C02D1F8000220F00100C1F8E4
:1005500000020020F0BDFFE7606A40F48020606286
:100560000120F7E770470146002091F82020012A7A
:1005700001D0022A11D10B689B6803F0806303B19C
:10058000401C0B689B6803F0006303B1401C0B68C0
:100590009B6803F0805303B1401C70472DE9F05F66
:1005A00004460025206846692068D0F80490206839
:1005B00087682068D0F80CA02068D0F810B02068B8
:1005C000D0F8188006F00100002855D007F001008F
:1005D000C0B101202168886007F0020018B12046F0
:1005E00000F03FFA0EE007F0040010B145F400659A
:1005F00008E007F0080010B145F4805502E02046FD
:1006000000F02EFA07F48070C8B14FF480702168B2
:10061000886007F4007018B1204600F024FA0EE05C
:1006200007F4806010B145F4005508E007F400605D
:1006300010B145F4804502E0204600F013FA07F4BB
:100640008030C8B14FF480302168886007F40030F2
:1006500018B1204600F009FA0EE007F4802010B12E
:1006600045F4004508E007F4002010B145F480355A
:1006700002E0204600F0F8F906F0080038B10AF070
:10068000100020B145F4007510202168C86006F004
:10069000040040B10AF0080028B108202168C860B1
:1006A000204600F0A9F906F0020038B12068C068C1
:1006B00000F0030010B1204600F09FF906F0400062
:1006C00038B10BF0100020B145F48065102021688E
:1006D000086106F0200040B10BF0080028B10820A6
:1006E00021680861204600F089F906F0100038B151
:1006F0002068006900F0030010B1204600F07FF987
:1007000006F4003040B109F0100028B11020216833
:100710004860204600F074F906F4803040B109F0DA
:10072000080028B1082021684860204600F09EF9A2
:1007300006F4004088B309F0040078B306F4807032
:1007400020B108F0010008B145F0010506F4007081
:1007500020B108F0020008B145F0020506F48060FF
:1007600020B108F0040008B145F0040506F400606B
:10077000A0B108F0700088B108F07000402817D0D0
:1007800006DC10280BD020280CD0302819D10CE022
:10079000502810D0602814D110E01DE019E045F079
:1007A00008050FE045F010050CE045F0200509E0D4
:1007B00045F0400506E045F0800503E045F480750E
:1007C00000E000BF00BF2068806920F07000216851
:1007D00088610420216848602DB1606A2843606206
:1007E0002046FFF7BFFEBDE8F09F70B504460CB988
:1007F000012070BD94F8200010B9204600F0B0F838
:100800002068006840F001002168086000F0D0FA1C
:1008100005460DE000F0CCFA401B0A2808D9606AB2
:1008200040F400306062052084F820000120E0E7F9
:100830002068406800F001000028EBD020680068C4
:1008400020F002002168086000F0B2FA05460DE0D1
:1008500000F0AEFA401B0A2808D9606A40F4003064
:100860006062052084F820000120C2E7206840680B
:1008700000F002000028EBD1207E012806D120687C
:10088000006840F080002168086005E0206800688A
:1008900020F0800021680860607E012806D1206871
:1008A000006840F040002168086005E020680068AA
:1008B00020F0400021680860A07E012806D1206851
:1008C000006840F020002168086005E020680068AA
:1008D00020F0200021680860E07E012806D1206811
:1008E000006820F010002168086005E020680068BA
:1008F00040F0100021680860207F012806D12068A0
:10090000006840F008002168086005E02068006881
:1009100020F0080021680860607F012806D1206867
:10092000006840F004002168086005E02068006865
:1009300020F0040021680860D4E90201084321691D
:100940000843616908436168491E08432168C8611A
:1009500000206062012084F82000002049E70000A8
:1009600010B586B0044600200290039004900590D4
:100970001E492068884236D100BF1D48C06940F03A
:1009800000701B49C8610846C06900F00070019002
:1009900000BF00BF00BF0846806940F004008861C6
:1009A0000846806900F00400019000BF00BFC81431
:1009B000029000200390049002A90E4800F058F81D
:1009C0004FF480500290022003900320059002A96A
:1009D000084800F04DF800220521142000F092FA9A
:1009E000142000F07FFA06B010BD00000064004043
:1009F0000010024000080140704770477047704780
:100A0000704770B5044694F82000012822D10220D6
:100A100084F820002068006820F001002168086048
:100A200000F0C6F905460DE000F0C2F9401B0A28A7
:100A300008D9606A40F400306062052084F8200024
:100A4000012070BD2068406800F001000028EBD153
:100A50006062F6E7606A40F4002060620120F0E71F
:100A60007047704770477047704770477047000085
:100A70002DE9F8470346002294466EE14FF0010845
:100A800008FA02F4D1F8008008EA0400A0427DD1FF
:100A9000DFF8DCA2D1F80480A8EB0A09D0453AD0EF
:100AA00014DCB8F1030F50D009DCB8F1000F31D0DD
:100AB000B8F1010F1CD0B8F1020F49D120E0B8F114
:100AC000110F18D0B8F1120F42D11EE0B9F5881FEE
:100AD00025D006DCB9F5803F20D0B9F5801F37D18D
:100AE0001AE0B9F5001F18D0B9F5041F30D117E08E
:100AF000D1F80CC02DE0D1F80C8008F1040C28E0EE
:100B0000D1F80C8008F1080C23E0D1F80C8008F132
:100B10000C0C1EE000BF00BF00BF00BF00BF00BF45
:100B2000D1F80880B8F1000F02D14FF0040C0BE0AF
:100B3000D1F80880B8F1010F03D14FF0080C1C6107
:100B400002E04FF0080C5C6103E04FF0000C00E0A5
:100B500000BF00BFFF2801D8984601E003F1040858
:100B60004646FF2802D84FEA820803E0A2F10808AF
:100B70004FEA88084746D6F800804FF00F0909FA77
:100B800007F928EA09080CFA07F900E088E048EAC2
:100B90000908C6F80080D1F8048008F08058B8F140
:100BA000805F7DD100BFDFF8CC81D8F8188048F095
:100BB0000108DFF8C091C9F81880C846D8F8188035
:100BC00008F00108CDF8008000BF00BF4FEAB93837
:100BD0004FEA920958F829504FEA82784FEA18797B
:100BE0004FF00F0808FA09F825EA0805DFF88881B0
:100BF000434502D14FF0000816E0DFF880814345FD
:100C000002D14FF001080FE0DFF87481434502D1B3
:100C10004FF0020808E0DFF86C81434502D14FF045
:100C2000030801E04FF004084FEA82794FEA19798E
:100C300008FA09F848EA0505DFF84C814FEA9209FD
:100C400048F82950D1F8048008F48038B8F5803F7E
:100C50000AD1DFF83881D8F8008048EA0008DFF8C8
:100C60002C91C9F8008009E0DFF82081D8F80080D5
:100C700028EA0008DFF81491C9F80080D1F8048050
:100C800008F40038B8F5003F10D1DFF8008108F112
:100C90000408D8F8008048EA0008DFF8F09000E087
:100CA0005AE009F10409C9F800800DE0DFF8DC80A2
:100CB00008F10408D8F8008028EA0008DFF8CC9092
:100CC00009F10409C9F80080D1F8048008F48018FB
:100CD000B8F5801F0ED1DFF8B48008F10808D8F805
:100CE000008048EA0008DFF8A49009F10809C9F873
:100CF00000800DE0DFF8948008F10808D8F8008043
:100D000028EA0008DFF8849009F10809C9F8008092
:100D1000D1F8048008F40018B8F5001F0ED1DFF8F0
:100D20006C8008F10C08D8F8008048EA0008DFF869
:100D30005C9009F10C09C9F800800DE0DFF84C80E7
:100D400008F10C08D8F8008028EA0008DFF83C9089
:100D500009F10C09C9F80080521CD1F8008028FA6A
:100D600002F8B8F1000F7FF489AEBDE8F887000003
:100D7000000011100010024000080140000C01406A
:100D8000001001400014014008000140000401402F
:100D900010B5C26821EA020302EA010443EA0443EF
:100DA000036110BD0AB1016101E00B0403617047EA
:100DB00001480068704700002400002003480068D4
:100DC000034909780844014908607047240000205D
:100DD0002C00002010B50848006840F010000649BB
:100DE0000860032000F0CCF8002000F007F800F0C5
:100DF00049F8002010BD00000020024070B588B006
:100E000004460025002600222146192000F07AF829
:100E1000192000F067F800BF1648806940F40060B0
:100E2000144988610846806900F40060019000BFA1
:100E300000BF02A903A800F07DF900F0A3F9054660
:100E40000D48B5FBF0F0461E0C480D49086040F215
:100E5000E7310B48C160466000210161816000F00C
:100E60001FFC20B9064800F04FFC08B070BD0120FF
:100E7000FBE700000010024040420F00002C014040
:100E80007803002008B500BF1448806940F00100D5
:100E9000124988610846806900F00100009000BF97
:100EA00000BF00BF0846C06940F08050C8610846D6
:100EB000C06900F08050009000BF00BF00220F21E9
:100EC000901E00F01FF800BF0549486820F0E06060
:100ED00040F00070486000BF08BD000000100240F4
:100EE0000000014001460846002809DB00F01F030E
:100EF00001229A4043099B0003F1E023C3F800213B
:100F000000BF70472DE9F05F80460D46164600276A
:100F100000F08CFE074639462A46334601F00700AA
:100F2000C0F1070ABAF1040F02D94FF0040A01E038
:100F3000C0F1070AD14600F1040ABAF1070F02D244
:100F40004FF0000A01E0A0F1030AD4464FF0010A75
:100F50000AFA09FAAAF1010A0AEA020A0AFA0CFADA
:100F60004FF0010B0BFA0CFBABF1010B0BEA030B7F
:100F70004AEA0B042146404600F060FEBDE8F09FBF
:100F800000BF00F00702064B19684FF6FF03194037
:100F9000044B0B4343EA0221014B196000BF704729
:100FA0000CED00E00000FA0570B504460D460CB9E2
:100FB000012070BD5A48006800F00700A8420ED218
:100FC0005748006820F00700284355490860084644
:100FD000006800F00700A84201D00120E9E720786E
:100FE00000F0020002281DD1207800F0040004283F
:100FF00005D14C48406840F4E0604A494860207898
:1010000000F00800082805D14648406840F46050C8
:10101000444948604348406820F0F000A168084314
:1010200040494860207800F0010078B360680128EA
:1010300006D13C48006800F4003090B90120B8E7C0
:101040006068022806D13748006800F0007040B997
:101050000120AEE73348006800F0020008B9012023
:10106000A7E73048406820F00300616808432D4935
:101070004860FFF79DFE064609E0FFF799FE801BDA
:1010800041F28831884202D9032092E707E02548DF
:10109000406800F00C006168B0EB810FEDD1204892
:1010A000006800F00700A8420ED91D48006820F033
:1010B000070028431A4908600846006800F0070046
:1010C000A84201D0012074E7207800F00400042831
:1010D00007D11448406820F4E060E16808431149F2
:1010E0004860207800F00800082808D10D484068C2
:1010F00020F46050216940EAC1000A49486000F0CC
:1011000051F808494968C1F30311074A515CC840C6
:101110000649086006480068FFF770FE002048E7AF
:1011200000200240001002409430000830000020EF
:10113000280000200F2202600D4A526802F00302CC
:1011400042600B4A526802F0F0028260084A52681C
:1011500002F4E062C260064A526802F46052D208A9
:101160000261044A126802F007020A607047000038
:101170000010024000200240014800687047000053
:101180003000002000B5FFF7F7FF04494968C1F3BC
:10119000C221034A515CC84000BD0000001002405B
:1011A000A4300008F0B585B00FF26C0C9CE8E0109C
:1011B00001A8A0E8E0101CA52D68009500210022E0
:1011C000002300240020194D696801F00C05F5B1D9
:1011D000042D02D0082D19D101E0154819E001AD08
:1011E000C1F38346AC5D01F4803555B10F4D6D6898
:1011F000C5F340451DF805200D4D6543B5FBF2F3E1
:1012000002E00C4D04FB05F3184602E000BF08485D
:1012100000BF00BF05B0F0BD0203040506070809C2
:101220000A0B0C0D0E0F10100102000000100240FE
:1012300000127A0000093D00F8B504460CB90120FF
:10124000F8BD207800F00100002878D0F848406808
:1012500000F00C0004280CD0F548406800F00C00A9
:10126000082811D1F248406800F48030B0F5803F82
:101270000AD1EF48006800F4003000285FD06068B1
:1012800000285CD10120DBE700BF6068B0F5803F3B
:1012900006D1E748006840F48030E549086028E05E
:1012A000606858B9E248006820F48030E04908607E
:1012B0000846006820F4802008601AE06068B0F5F5
:1012C000A02F0BD1DA48006840F48020D84908608C
:1012D0000846006840F4803008600AE0D44800689E
:1012E00020F48030D24908600846006820F480204D
:1012F000086000BF606888B1FFF75AFD054606E048
:10130000FFF756FD401B642801D9032098E7C84821
:10131000006800F400300028F2D010E0FFF748FD2C
:10132000054606E0FFF744FD401B642801D9032071
:1013300086E7BF48006800F400300028F2D120782A
:1013400000F00200022857D1B948406800F00C00B4
:1013500050B1B748406800F00C00082818D1B448D4
:10136000406800F4803098B9B148006800F002008D
:1013700020B12069012801D0012061E7AC48006854
:1013800020F0F800616940EAC100A949086033E033
:101390002069E8B10120A7490860FFF709FD05466B
:1013A00006E0FFF705FD401B022801D9032047E7AF
:1013B0009F48006800F002000028F2D09C480068B6
:1013C00020F0F800616940EAC1009949086013E023
:1013D000002098490860FFF7EBFC054606E0FFF7A0
:1013E000E7FC401B022801D9032029E79048006848
:1013F00000F002000028F2D1207800F00800082850
:101400002DD1A069B8B101208B490860FFF7D0FC4D
:10141000054606E0FFF7CCFC401B022801D903205B
:101420000EE78348406A00F002000028F2D0012055
:1014300000F022FB13E000207F490860FFF7B8FCB2
:10144000054606E0FFF7B4FC401B022801D9032043
:10145000F6E67748406A00F002000028F2D12078D2
:1014600000F00400042873D100277148C06900F01F
:10147000805070B900BF6E48C06940F080506C4920
:10148000C8610846C06900F08050009000BF00BFEE
:1014900001276A48006800F48070B0B967480068A6
:1014A00040F4807065490860FFF782FC054606E05D
:1014B000FFF77EFC401B642801D90320C0E65F488B
:1014C000006800F480700028F2D000BFE0680128B6
:1014D00006D15748006A40F001005549086227E0EC
:1014E000E06858B95248006A20F00100504908628B
:1014F0000846006A20F00400086219E0E068052848
:101500000BD14B48006A40F0040049490862084684
:10151000006A40F0010008620AE04548006A20F0D5
:101520000100434908620846006A20F0040008628E
:1015300000BFE068A0B1FFF73BFC054609E0FFF7FC
:1015400037FC401B41F28831884202D9032077E6FC
:1015500022E03748006A00F002000028EFD012E0D5
:10156000FFF726FC054608E0FFF722FC401B41F28E
:101570008831884201D9032062E62D48006A00F0D4
:1015800002000028F0D1012F05D12948C06920F0C0
:1015900080502749C86100BFE069C8B3244840684B
:1015A00000F00C00082860D0E069022848D1002033
:1015B00020490866FFF7FCFB054606E0FFF7F8FB4D
:1015C000401B022801D903203AE61948006800F0C0
:1015D00000700028F2D1206AB0F5803F07D114488E
:1015E000406820F40030A168084311494860D4E9FC
:1015F000080108430E49496821F4741108430C4955
:10160000486001200B490866FFF7D2FB054607E05A
:101610003DE0FFF7CDFB401B022801D903200FE678
:101620000348006800F000700028F2D02FE00000AE
:10163000001002400000424280044242007000401C
:10164000002014490866FFF7B3FB054606E0FFF7E4
:10165000AFFB401B022801D90320F1E50E480068CA
:1016600000F000700028F2D111E0E069012800D1FB
:10167000E6E50948466806F48031206A814204D1D3
:1016800006F47011606A814201D00120D8E5002083
:10169000D6E500000000424200100240704770474B
:1016A00010B504460CB9012010BD94F83D0028B9CE
:1016B000002084F83C00204600F025F8022084F841
:1016C0003D00211D206800F059FA012084F84600F1
:1016D00000BF84F83E0001213F2001554020015504
:1016E0004120015500BF00BF012084F84200432083
:1016F0000155442001554520015500BF012084F8C3
:101700003D000020D0E77047014691F83D000128D8
:1017100001D001207047022081F83D000868C068B0
:1017200040F001000B68D860124B086898420BD05B
:101730000868B0F1804F07D00F4B0868984203D07B
:101740000E4B086898420CD10868806800F00702C8
:10175000062A0CD00868006840F001000B68186089
:1017600005E00868006840F001000B681860002080
:10177000D0E70000002C01400004004000080040B9
:10178000704710B5044620680069C0F34000D8B126
:101790002068C068C0F34000B0B16FF0020021685B
:1017A0000861012020772068806900F0030018B1EB
:1017B0002046FFF7E5FF05E0204600F0ADF82046A3
:1017C00000F0ABF80020207720680069C0F38000AB
:1017D000D8B12068C068C0F38000B0B16FF00400D9
:1017E00021680861022020772068806900F4407039
:1017F00018B12046FFF7C4FF05E0204600F08CF842
:10180000204600F08AF80020207720680069C0F3A5
:10181000C000D8B12068C068C0F3C000B0B16FF09C
:10182000080021680861042020772068C06900F062
:10183000030018B12046FFF7A3FF05E0204600F0A3
:101840006BF8204600F069F80020207720680069D6
:10185000C0F30010D8B12068C068C0F30010B0B168
:101860006FF0100021680861082020772068C069A7
:1018700000F4407018B12046FFF782FF05E02046D3
:1018800000F04AF8204600F048F800202077206851
:10189000006900F0010058B12068C06800F0010044
:1018A00030B16FF0010021680861204600F036F881
:1018B00020680069C0F3C01058B12068C068C0F348
:1018C000C01030B16FF08000216808612046FFF73A
:1018D000E5FE20680069C0F3801058B12068C06838
:1018E000C0F3801030B16FF04000216808612046DD
:1018F00000F020F820680069C0F3401058B120685B
:10190000C068C0F3401030B16FF02000216808615A
:101910002046FFF7C4FE10BD7047704710B504465F
:1019200003492068884201D1FFF748FA10BD000042
:10193000002C0140704700BFFEE7000010B50E48C4
:101940000E4908601220486000210C488160C16087
:101950004FF4502101614FF4800141610021017673
:1019600041768176C17601774177FEF73EFF08B177
:10197000FEF7B0FC10BD00000064004050030020E2
:1019800000B595B01C2212490EA8FEF729FC0021D3
:101990000EA800F039FC0F4908601C220C491C31CC
:1019A00007A8FEF71DFC002107A800F02DFC0A493E
:1019B00008601C22064938316846FEF711FC0021F8
:1019C000684600F021FC0549086015B000BD000024
:1019D0004030000804000020080000200C00002017
:1019E00000B585B00020019002900390049000BFE4
:1019F0001D48806940F010001B49886108468069D5
:101A000000F01000009000BF00BF00BF08468069D2
:101A100040F0200088610846806900F020000090B6
:101A200000BF00BF00BF0846806940F00400886125
:101A30000846806900F00400009000BF00BF00224B
:101A40004FF400510948FFF7ADF94FF400500190F1
:101A500001200290002003900220049001A9034875
:101A6000FFF706F805B000BD00100240001001406D
:101A700000BFFEE700BFFEE708B508490968C908CE
:101A80004FF47A72B1FBF2F14143009100BF00BF05
:101A900000994A1E00920029F9D108BD30000020AB
:101AA00000BF012000F09FFBFBE700BF012000F01A
:101AB0009AFBFBE700BF4FF400510448FFF768F9B9
:101AC0004FF4FA7000F08FFBF5E7000000100140C2
:101AD00010B500BF502080F31188BFF34F8FBFF3C4
:101AE0006F8F00BF01F086F918B14FF080500449A4
:101AF000086000BF002080F3118800BF10BD000007
:101B000004ED00E000B58FB0282105A8FEF781FBA9
:101B100014216846FEF77DFB012005900004069025
:101B2000002007900120099002200C90C1030D9124
:101B30004FF4E0110E9105A8FFF77EFB08B1FEF708
:101B4000C9FB0F20009002200190002002904FF46A
:101B5000806003900020049002216846FFF724FA79
:101B600008B1FEF7B7FB0FB000BD704710B50248D3
:101B7000FFF707FE10BD00007803002010B50268D3
:101B8000184B984208D0B0F1804F05D0164B9842C0
:101B900002D0164B984203D122F070024B681A43D0
:101BA000104B984208D0B0F1804F05D00E4B9842B0
:101BB00002D00E4B984203D122F44072CB681A43F4
:101BC00022F080034C6943EA040202608B68C3621E
:101BD0000B688362034B984201D10B6903630123B5
:101BE000436110BD002C014000040040000800408B
:101BF00010B50248FEF7D2FC10BD000050030020D3
:101C000000BFFEE70FB4084B10B504A902AA039861
:101C100000F038F8044602A9002000F05EFA2046E1
:101C200010BC5DF814FB0000DB20000802480068CF
:101C3000C0F30220704700000CED00E010B5002852
:101C400004DB0A07130E054A135406E00A07140EB4
:101C5000034A00F00F031B1FD45410BD00E400E042
:101C600018ED00E002E008C8121F08C1002AFAD1EE
:101C700070477047002001E001C1121F002AFBD10C
:101C8000704700002DE9FF4F8DB00F460546002636
:101C900006E025280BD0DDE90F1290476D1C761C5D
:101CA00028780028F5D111B03046BDE8F08F002427
:101CB000A246A1460122E94900E0044315F8013F8C
:101CC000203B02FA03F00842F7D128782A2810D0E6
:101CD0006FF02F022878A0F13001092914D80AEBFF
:101CE0008A0102EB410144F0020400EB010A6D1C81
:101CF000F0E701CF5FEA000A03D544F40054CAF1CB
:101D0000000A44F002046D1C28782E2817D115F81B
:101D1000010F44F004042A280ED06FF02F02287817
:101D2000A0F1300109290AD809EB890102EB410130
:101D300000EB01096D1CF2E757F8049B6D1C287835
:101D40006C280FD006DC4C2817D068280DD06A28E4
:101D500014D104E0742810D07A280FD10DE044F497
:101D600000140AE044F4801401E044F4401469785B
:101D7000814202D104F580146D1C6D1C28786E28F8
:101D80001ED00CDC632830D004DC00288BD058280F
:101D900011D19FE0642867D069280CD164E07328D2
:101DA0002DD004DC6F2872D0702804D194E07528FF
:101DB0006ED078286DD0DDE90F129047761C4BE18C
:101DC000C4F30250022806D0032809D0042801CF0A
:101DD00009D0066040E101CFF117C0E900613BE1A5
:101DE00001CF068038E1067036E117F8040B8DF854
:101DF000000000208DF80100EB46012003E057F8B9
:101E000004BB4FF0FF3061074FF0000102D40DE03A
:101E100008F10101884649450FDA8045F8DB1BF8D7
:101E200008100029F4D108E008F101018846814238
:101E3000FADB1BF808100029F6D1DDE90F23AAEB25
:101E400008008146214600F031F9304400EB0806D5
:101E500004E0DDE90F121BF8010B9047B8F101080F
:101E6000F7D221464846F2E00A21C4F302524FF06D
:101E7000000B0891022A04D001CFC117032A09D010
:101E80000AE0FF1D27F00707F7E8020108E02CE051
:101E90001EE01FE000B2C117042A01D140B2C117F1
:101EA000021E71F1000206DA0023D0EB030063EB9F
:101EB00001012D2202E0220504D52B228DF82420D9
:101EC000012203E0E20701D02022F7E7904653E029
:101ED0000A210BE0102109E010214FF0000B44F023
:101EE00004044FF00809089103E008214FF0000BAB
:101EF0000891C4F30252022A04D001CF0021032A20
:101F000006D006E0FF1D27F00707F7E8020103E00F
:101F100080B2042A00D1C0B24FF0000822072BD5AE
:101F20002A78702A07D0DDF820C08CF0100C5CEA0B
:101F30000B0C05D00EE040228DF82420012208E091
:101F400050EA010306D030238DF824308DF8252087
:101F500002229046089B83F0080353EA0B030BD13F
:101F600050EA010201D1620706D530228DF8242003
:101F70004FF00108A9F101092A78582A04D038A2A3
:101F80000B9208AA0A920BE03AA2F9E75B46089A7C
:101F9000FEF74AF90B9B9B5C0A9A521E0A92137039
:101FA00050EA0102F2D10A98ADEB000000F1200BDB
:101FB000600702D524F4803401E04FF00109D945CF
:101FC00002DDA9EB0B0000E0002000EB0B01414417
:101FD0000890AAEB010AE00306D4DDE90F232146AD
:101FE000504600F063F806444FF0000908E009A9E4
:101FF00011F80900DDE90F12904709F10109761C7B
:10200000C145F4DBE0030CD5DDE90F232146504642
:1020100000F04CF8064404E0DDE90F123020904750
:10202000761C0899481E08900029F5DC08E00A98FB
:102030000A990078491C0A91DDE90F129047761C35
:10204000BBF10001ABF1010BF1DC21465046DDE9AB
:102050000F2300F019F806446D1C21E60928010041
:10206000303132333435363738396162636465660E
:1020700000000000303132333435363738394142D0
:1020800043444546000000002DE9F0410446002588
:102090001E461746880404D405E039462020B04780
:1020A0006D1C641EF9D52846BDE8F0812DE9F0418C
:1020B000044600251E469046C80301D5302700E09F
:1020C0002027880404D505E041463846B0476D1CFA
:1020D000641EF9D52846BDE8F0810A68531C0B60E0
:1020E00010707047FEF776FEFFF70CFDFFF778FCE7
:1020F000FFF724FC4FF660602A4988604FF40350D4
:1021000008604FF66060C8604FF4035048600020DC
:102110008861C86108614861012008622248FEF7B1
:102120009CF902212048FEF7D8F81F48FEF769FC09
:10213000FFF726FC00F063F833E01C48007858B144
:102140001B481CA102681F48FFF75CFD184819A135
:1021500002681C48FFF756FD1B480078012820D173
:102160000020194908704FF4817018490860002058
:10217000C860886008200861002005E01449095CF7
:10218000491C134A1154401C0828F7DB0648FEF787
:10219000EAF9104908600B460D4A0C490248FEF75F
:1021A000B1F8CAE7F402002050030020000000202C
:1021B0001C03002052582049443A203078253358D7
:1021C00000000000940000200100002038030020DF
:1021D0001C0000201800002001460020842901D0A6
:1021E000CA1C1044704770B5044625460DB12946F7
:1021F00000E00121084600F01FFC002070BD10B572
:1022000000F048FC002010BD7FB504460D46606913
:1022100098B1A06988B1B4F90800FFF7DDFF064660
:10222000D4E90510CDE9006102902B462269D4E97A
:10223000001000F083FD039013E0B4F90800FFF7ED
:10224000CBFF064603A8CDE90060238A9AB22B464D
:10225000D4E9001000F040FD012802D0002004B0B5
:1022600070BD0398FBE700002DE9F04105460E46DE
:102270001C4807681C480068001D00F0E1FA50B9CE
:102280001948006890F82C10012088401749096807
:10229000814316480160681C38B936B1124801689C
:1022A000091D134800F016FB1AE07C190E4800685F
:1022B0004460BC4207D20C480168091D0D48006803
:1022C00000F0EEFA0CE008480168091D0A480068B1
:1022D00000F0E6FA09480068844201D20748046029
:1022E000BDE8F08148000020340000204C000020B0
:1022F0009C0400203C0000203800002064000020E6
:1023000010B5044600F0F2FA23480068401C224948
:1023100008602248006840B9204804600846006808
:1023200001280DD100F03AF90AE01D48006838B9DB
:102330001A480068C06AE16A884201D817480460F8
:1023400018480068401C1749086094F82C100120B8
:10235000884015490968084313490860E16A01EBA0
:102360008101124A02EB8100211D00F0B3FA00F056
:10237000E7FA0B48006868B108480068C06AE16A7B
:10238000884207D24FF0805009490860BFF34F8F51
:10239000BFF36F8F10BD0000440000203400002008
:1023A00050000020600000204C000020C0030020EE
:1023B00004ED00E010B516E000F098FA0C48C06893
:1023C000C468201D00F03CFA0A480068401E094914
:1023D000086009480068401E0749086000F0B0FA2C
:1023E000204600F00BF8044800680028E4D110BD36
:1023F00088040020440000204000002010B504465E
:1024000094F8510030B9206B00F0B8FA204600F083
:10241000B5FA1AE094F85100012803D1204600F0E3
:10242000ADFA12E094F85100022801D1012000E039
:10243000002050B900BF502080F31188BFF34F8FA8
:10244000BFF36F8F00BF00BFFEE710BD30B54FF484
:102450004063174800F007042CB1C01D20F00700AE
:10246000134C041B1B1B0246124C22600024114D0E
:102470006C60D018083820F007000F4C2060002452
:102480000D4D2D686C600C4D2D682C601146441A62
:102490004C60094C24680C60084D4C682C60084D59
:1024A0004C682C604FF00044064D2C6030BD00009D
:1024B000B004002070000020780000208000002080
:1024C0007C0000208400002000BFFFF773FF064857
:1024D00000680128F9D94FF0805004490860BFF323
:1024E0004F8FBFF36F8FF0E7C003002004ED00E0D3
:1024F0002DE9FF5F81460F469246DDE90E6B109C89
:10250000AAF10100216B01EB800828F0070808F010
:10251000070008B9012000E0002050B900BF50209A
:1025200080F31188BFF34F8FBFF36F8F00BF00BFE1
:10253000FEE7002507E0795D04F134004155785D40
:1025400000B902E06D1C102DF5D300BF002143201F
:102550000155072E00D30626E66266640020A064BB
:10256000201D00F09AF904F1180000F096F924619A
:10257000C6F10700A06164620020E06484F85000A6
:1025800049464046039A00F049F92060BBF1000F2C
:1025900001D0CBF80040BDE8FF9F000010B500243B
:1025A00007E004EB84010F4A02EB810000F068F9B8
:1025B000641C072CF5D30C4800F062F90B4800F0BE
:1025C0005FF90B4800F05CF90A4800F059F90A4835
:1025D00000F056F9044809490860044808490860B1
:1025E00010BD0000C00300204C0400206004002047
:1025F00074040020880400209C040020380000207F
:102600003C00002010B50146164800E00068036851
:102610008B42FBD30246436813448B4204D1436888
:102620004C682344436001460A464B6813440468DF
:10263000A34211D10C4C03682468A34208D04B6814
:102640000468646823444B6003681B680B6005E002
:10265000054B1B680B6001E003680B60884200D0EB
:10266000016010BD70000020780000200A49096850
:10267000096809B9012100E0002121B14FF0FF31C3
:10268000064A116006E004490968C968C868034A37
:10269000416811607047000038000020640000208D
:1026A0000E480068401C08B9012000E0002050B925
:1026B00000BF502080F31188BFF34F8FBFF36F8F9F
:1026C00000BF00BFFEE700BF502080F31188BFF3BA
:1026D0004F8FBFF36F8F00BF00BFFEE78800002061
:1026E0002DE9F04104464FF0000800F02BFA46486F
:1026F000006808B9FFF7AAFE444800682040002897
:102700006BD1D4B1083404F00700B0B104F0070075
:10271000C0F10800044404F0070008B9012000E0FB
:10272000002050B900BF502080F31188BFF34F8FB5
:10273000BFF36F8F00BF00BFFEE7002C4DD03448C1
:102740000068844249D8334E3046056801E02E4681
:102750002D686868A04202D228680028F7D12A486C
:102760000068854239D0306800F108082868306078
:102770006868001B102819D92F1907F0070008B93D
:10278000012000E0002050B900BF502080F31188E4
:10279000BFF34F8FBFF36F8F00BF00BFFEE76868C6
:1027A000001B78606C603846FFF72CFF184968689A
:1027B0000968081A16490860084600681649096839
:1027C000884203D212480068134908600F496868BC
:1027D0000968084368600020286000F0AFFB08F03B
:1027E000070008B9012000E0002050B900BF5020C8
:1027F00080F31188BFF34F8FBFF36F8F00BF00BF0F
:10280000FEE74046BDE8F08178000020840000200B
:102810007C0000207000002080000020001F4FF08E
:1028200080730360001F21F001030360001F034B4E
:10283000036014380260203870470000A1260008A9
:1028400001460A69D1E901309860D1E90103586075
:102850005068884201D18868506000200861106883
:10286000401E106010687047034B0360034B0B6001
:102870008023136070470000A0000020F4000020B7
:1028800000F1080141604FF0FF31816000F1080163
:10289000C160016100210160704700210161704742
:1028A00010B502460B685C1C0CB9106907E002F118
:1028B000080000E04068446824689C42FAD94468F3
:1028C0004C604C68A160886041600A611468641CB7
:1028D000146010BD42684A6093688B6093685960C9
:1028E0009160086103685B1C0360704700BF502063
:1028F00080F31188BFF34F8FBFF36F8F00BF0E4877
:102900000068401C0C49086008460068012812D184
:102910000A480068C0B208B9012000E0002050B9A0
:1029200000BF502080F31188BFF34F8FBFF36F8F2C
:1029300000BF00BFFEE770478800002004ED00E004
:102940000D48006850B900BF502080F31188BFF3D4
:102950004F8FBFF36F8F00BF00BFFEE706480068D0
:10296000401E054908600846006820B9002080F331
:10297000118800BF00BF70478800002070B5064670
:102980003546002E3FD0083D2C461F496068096837
:10299000084008B1012000E0002050B900BF5020DD
:1029A00080F31188BFF34F8FBFF36F8F00BF00BF5D
:1029B000FEE7206808B9012000E0002050B900BF00
:1029C000502080F31188BFF34F8FBFF36F8F00BF8C
:1029D00000BFFEE70C4960680968084098B12068AC
:1029E00088B90949606809688843606000F0AAF8FE
:1029F0000649606809680844044908602046FFF7F2
:102A000001FE00F09BFA70BD840000207C000020D5
:102A100000204FF0E02108618861064800684FF40B
:102A20007A71B0FBF1F0401E4FF0E02148610720C1
:102A3000086170473000002070B504460025D4B10D
:102A40001248006808B9012000E0002050B900BF1A
:102A5000502080F31188BFF34F8FBFF36F8F00BFFB
:102A600000BFFEE700F06EF800212046FFF7FCFBF8
:102A700000F064FA05463DB94FF080500449086003
:102A8000BFF34F8FBFF36F8F70BD00006C0000204D
:102A900004ED00E010B586B000200590049003AA74
:102AA00004A905A8FFF7E0FE0022DDE904101346A3
:102AB000CDE9002102901CA11D48039A00F03EF9C7
:102AC0001C4908600846006808B1012400E00024A1
:102AD000012C15D100BF502080F31188BFF34F8F18
:102AE000BFF36F8F00BF4FF0FF3013490860012024
:102AF0001249086000201249086000F071F810E0E7
:102B0000601C08B1012000E0002050B900BF502037
:102B100080F31188BFF34F8FBFF36F8F00BF00BFEB
:102B2000FEE706B010BD000049444C45000000001F
:102B3000C924000868000020640000205000002024
:102B40004800002002480068401C014908607047A6
:102B50006C0000201D48006818B101201C49086065
:102B600032E000201A4908601A480068B0FA80F084
:102B7000C0F11F0101EB8100174A52F8200008B193
:102B8000012000E0002050B900BF502080F31188E0
:102B9000BFF34F8FBFF36F8F00BF00BFFEE701EBA6
:102BA00081020D4B03EB820042685268426000F1E3
:102BB00008024368934202D1426852684260426808
:102BC000D268064B1A6000BF704700006C000020FE
:102BD000580000204C000020C003002034000020DA
:102BE0001CB53849084600780190FF200A4610704D
:102BF0000846007800909DF8000000F0F0009DF875
:102C00000020904201D1012000E0002050B900BF17
:102C1000502080F31188BFF34F8FBFF36F8F00BF39
:102C200000BFFEE79DF8000000F05000264A10703B
:102C30000720264A106009E024480068401E234A05
:102C400010609DF800004006000E00909DF8000006
:102C500000F080008028EFD01C480068C0F1070019
:102C6000042801D1012000E0002050B900BF50200D
:102C700080F31188BFF34F8FBFF36F8F00BF00BF8A
:102C8000FEE7124800680002104A106010460088F3
:102C900000F4E06010600B4A019810700C48006866
:102CA00040F470000A4908600846006840F070402F
:102CB0000860FFF7ADFE002006490860FDF734FA12
:102CC00000201CBD00E400E08C00002090000020EB
:102CD00020ED00E0880000202DE9FF4F85B0804600
:102CE00089461746DDE912ABB800FFF7F9FC064646
:102CF00056B15420FFF7F4FC04460CB1266304E0FF
:102D00003046FFF73BFE00E000248CB1002084F841
:102D10005100CDE900ABCDE902403A464946404674
:102D2000089BFFF7E5FB2046FFF7EAFA012501E0E3
:102D30004FF0FF35284609B0BDE8F08F2DE9F04F80
:102D400085B00746884691469A46DDE90EB6109C46
:102D50000EB1012000E0002050B900BF502080F3E8
:102D60001188BFF34F8FBFF36F8F00BF00BFFEE727
:102D70000CB1012000E0002050B900BF502080F3CA
:102D80001188BFF34F8FBFF36F8F00BF00BFFEE707
:102D9000542003900398542801D1012000E0002022
:102DA00050B900BF502080F31188BFF34F8FBFF39D
:102DB0006F8F00BF00BFFEE7B4B1AEB125462C4611
:102DC0002E63022085F85100002004A953464A468C
:102DD000CDE900B1CDE9025041463846FFF788FB06
:102DE0002846FFF78DFA01E000200490049805B012
:102DF000BDE8F08F2DE9F0414FF00008444800682D
:102E0000002877D143480068451C4248056015BB3F
:102E100041480068006808B9012000E0002050B96E
:102E200000BF502080F31188BFF34F8FBFF36F8F27
:102E300000BF00BFFEE738480768384800683649D9
:102E400008603648076036480068401C344908600E
:102E5000FFF70CFC00BF3348006885423CD300BF3D
:102E60002D480068006808B9012000E0002020B16A
:102E70004FF0FF302B4908602DE027480068C068FC
:102E8000C4686668B54202D22648066023E0201D69
:102E9000FFF7D6FCA06A18B104F11800FFF7D0FCC8
:102EA00094F82C10012088401F49096808431E49E6
:102EB0000860E16A01EB81011C4A02EB8100211DDF
:102EC000FFF708FD1A49E06A0968C96A8842C7D352
:102ED0004FF00108C4E700BF15480068C06A00EB66
:102EE0008000124951F82000012801D94FF0010853
:102EF00005E0FFE70F480068401C0E4908600E48D7
:102F0000006808B14FF001084046BDE8F0810000BC
:102F10006C00002048000020380000203C00002009
:102F20005C000020640000204C000020C003002052
:102F300034000020540000205800002070B5002408
:102F400000263648006850B900BF502080F3118831
:102F5000BFF34F8FBFF36F8F00BF00BFFEE7FFF7D8
:102F6000C5FC2E480068401E2C49086008460068D1
:102F700000284FD12A48006800284BD024E0294877
:102F8000C068C46804F11800FFF75AFC201DFFF761
:102F900057FC94F82C100120884023490968084305
:102FA00021490860E16A01EB8101204A02EB8100BE
:102FB000211DFFF78FFC1E49E06A0968C96A884233
:102FC00002D301201B4908601648006808B9012097
:102FD00000E000200028D2D00CB1FFF747FB1648D4
:102FE000056865B100BFFFF705FF10B10120114969
:102FF00008606D1E002DF6D100200F4908600D48B5
:10300000006838B1012630070C490860BFF34F8FC4
:10301000BFF36F8FFFF794FC304670BD6C0000204B
:1030200044000020740400204C000020C003002055
:1030300034000020580000205400002004ED00E07F
:10304000C4300008A11A00080000000000000000C1
:10305000800000000000000000000000AC3000080C
:10306000AB1A0008FDFF0000000000008000000017
:103070000000000000000000B8300008B51A000889
:10308000FDFF0000000000008000000000000000C4
:103090000000000000000000000000000102030426
:1030A0000607080900000000010203046D7954615D
:1030B000736B3032000000006D795461736B3033F4
:1030C0000000000064656661756C745461736B0088
:1030D000F03000080000002094000000641C00088C
:1030E00084310008940000201C140000741C0008A7
:1030F00000000000000000000000000000000000D0
:1031000000000000000000000000000000000000BF
:10311000000000000000000010000000010000009E
:103120000024F40000000000000000000000000087
:10313000000000000000000000000000000000008F
:10314000000000000000000000000000000000007F
:10315000000000000000000000000000000000006F
:10316000000000000000000000000000000000005F
:103170000000000000000000AAAAAAAA00000000A7
:04318000000000004B
:04000005080000ED02
:00000001FF
